:1000000066C4000081C400007FC400007DC40000FD
:100010007BC4000079C4000077C4000075C40000F0
:1000200073C4000071C400000C9482230C946A24F1
:100030000C94841269C4000067C4000065C4000009
:1000400063C4000061C400005FC400005DC4000020
:100050005BC400000C945E2357C4000055C400002C
:1000600053C4000051C400004FC400004DC4000040
:100070004BC4000049C4000047C4000045C4000050
:1000800043C4000041C400003FC400003DC4000060
:100090003BC4000039C4000037C4000035C4000070
:1000A00033C4000031C400002FC400000501090260
:1000B000A10185020901A1000509190129081500FE
:1000C0002501950875018102050109300931158165
:1000D000257F95027508810609381581257F9501D0
:1000E00075088106050C0A38021581257F95017572
:1000F000088106C0C005010980A101850319012AF4
:10010000B700150126B700950175108100C0050CD8
:100110000901A101850419012AA002150126A002E6
:10012000950175108100C00660FF0961A101096297
:10013000150026FF00952075088102096315002629
:10014000FF00952075089102C005010906A101056F
:100150000719E029E7150025019508750181029529
:1001600001750881010507190029FF150026FF0008
:100170009506750881000508190129051500250156
:10018000950575019102950175039101C009025B06
:1001900000030100A0FA09040000010301010009A5
:1001A0002111010001224400070581030800010913
:1001B00004010002030000000921110100012222B4
:1001C0000007058203200001070503032000010941
:1001D0000402000103000000092111010001227B3B
:1001E000000705840320000112010002000000083E
:1001F00027170400010001020001220374007200AD
:10020000610063006B00620061006C006C005F00C5
:100210006D006F00640075006C00650000000C0349
:1002200061006B006900320037000000040309041C
:10023000D100D200D300D4000500057E04000500E3
:1002400006000400050006004E004B004E004B0067
:100250004E004B004E004B00202020002020004389
:10026000504920202F205363446976202F20416E6F
:10027000676C650A00437572736F720A005363728C
:100280006F6C6C0A004D6F6465203A2000556E64F7
:1002900065660A004D6F7573650A00526169736582
:1002A0000A004C6F7765720A00426173650A004C60
:1002B000617965723A200000AE00AF0000000000D6
:1002C000003E5B4F5B3E003E6B4F6B3E001C3E7C36
:1002D0003E1C00183C7E3C18001C577D571C001C1F
:1002E0005E7F5E1C0000183C180000FFE7C3E7FFBC
:1002F00000001824180000FFE7DBE7FF0030483A51
:10030000060E00262979292600407F0505070040B2
:100310007F05253F005A3CE73C5A007F3E1C1C08E5
:1003200000081C1C3E7F0014227F2214005F5F0027
:100330005F5F0006097F017F00006689956A0060A3
:10034000606060600094A2FFA2940008047E04082C
:100350000010207E20100008082A1C0800081C2A13
:100360000808001E10101010000C1E0C1E0C00308F
:10037000383E383000060E3E0E0600000000000039
:100380000000005F000000000700070000147F1459
:100390007F1400242A7F2A12002313086462003687
:1003A0004956205000000807030000001C224100AD
:1003B000000041221C00002A1C7F1C2A0008083E65
:1003C00008080000807030000008080808080000D5
:1003D00000606000002010080402003E5149453EC4
:1003E0000000427F400000724949494600214149CE
:1003F0004D33001814127F10002745454539003C45
:100400004A49493100412111090700364949493615
:1004100000464949291E0000001400000000403435
:1004200000000000081422410014141414140000E9
:1004300041221408000201590906003E415D594E4F
:10044000007C1211127C007F49494936003E41412F
:100450004122007F4141413E007F49494941007F9F
:1004600009090901003E41415173007F0808087FD6
:100470000000417F4100002040413F01007F0814FF
:100480002241007F40404040007F021C027F007FED
:100490000408107F003E4141413E007F09090906E2
:1004A000003E4151215E007F091929460026494935
:1004B00049320003017F0103003F4040403F001FDD
:1004C0002040201F003F4038403F00631408146361
:1004D000000304780403006159494D4300007F4143
:1004E000414100020408102000004141417F000406
:1004F00002010204004040404040000003070800A1
:10050000002054547840007F284444380038444444
:10051000442800384444287F0038545454180000BC
:10052000087E0902001824241C78007F080404783F
:100530000000447D4000002040403D00007F102826
:1005400044000000417F4000007C04780478007C77
:1005500008040478003844444438007C18242418E3
:1005600000182424187C007C080404080048545413
:1005700054240004043F4424003C4040207C001CE0
:100580002040201C003C4030403C004428102844BF
:10059000004C9090907C004464544C440000083619
:1005A0004100000000770000000041360800000212
:1005B00001020402003C2623263C0000000000004B
:1005C000000000C060C0D0C8E86C6464646C6868F7
:1005D00098D06000800000000000000000008080D3
:1005E000800000000000000000808080000000000B
:1005F000000000000080808000000000000000007B
:1006000000808000000000000000E0E0000000002A
:1006100000000000C0E0E0E000000000000080E01A
:10062000E0200000000000000000000000000000CA
:10063000000000000000000000E0F0F0F0E0ECEE50
:10064000F7F37020007C7C7C7E007E7E7E7F7F7F47
:10065000000080C0E07E5B4F5BFEC00000C000DC9D
:10066000D7DEDEDED7DC00C00000000000000000A6
:10067000000000000000000000000000000000007A
:1006800000FC8778FEFE01017884820202868603E0
:100690000187FFFC03FE00000000FCFECF03030304
:1006A0000387C7860078FEFF8703030303CFFEFCA2
:1006B0000038FEFF8703030303C7868400FCFE8720
:1006C0000303030387FEFC300303FFFF83030000E3
:1006D00070787E6F6361FFFF606000F0FCFF0F0FBA
:1006E0000E8EFCF860003030303030FFFF3030309C
:1006F0003000000000000000000F1F3F7F7F7F7F61
:100700007F3F1E0C001F1F1F3F003F3F3F7F7F7F2B
:1007100000307B7F7830202030787F3B0003000F53
:100720007F0F0F0F7F0F000300000000000000008C
:1007300000000000000000000000000000000000B9
:1007400000000304193F27425858D99999D85D5F92
:100750006E2C190C070100000000000103030303C5
:10076000030303010000010103030303030301006A
:100770000000000103030303030301000000010361
:10078000030303030301000000000103030300004F
:100790000000000000000303000000000103030349
:1007A0000303030100000000000000030300000039
:1007B0000000000000000000000000000000000039
:1007C0000000000000000000000000000000000029
:1007D0000000000000000000000000000000000019
:1007E0000000000000000000000000000000000009
:1007F000000000000000000000000000DA0281FF9D
:10080000D9F1DB20A4A62EAF00A0C0D30000A1C860
:10081000D30000AED580A81F408D1420000000003A
:1008200000000000000000000000000000000000C8
:1008300000000000000000000000000000000000B8
:10084000007E0F00D4FFFFFFC7000000780000000B
:1008500000000000002A2B2800000000000000001B
:10086000000000000000000029000000002C1E34E1
:1008700020212224342627252E362D3738271E1FE7
:10088000202122232425263333362E37381F040512
:10089000060708090A0B0C0D0E0F10111213141580
:1008A000161718191A1B1C1D2F3130232D3504055E
:1008B000060708090A0B0C0D0E0F10111213141560
:1008C000161718191A1B1C1D2F3130354C00112416
:1008D0001FBECFEFDAE0DEBFCDBF11E0A0E0B1E098
:1008E000EEE5F8E502C005900D92AA3DB107D9F7F3
:1008F00024E0AAEDB1E001C01D92A23EB207E1F7EB
:100900000E940E1E0C94E02B7BCB982F92959F702B
:1009100061F420E0982F892F8695869511F02E5F3F
:10092000982F892F8695820F089524E0F4CFCF93D6
:10093000C82FEBDF815091E0823008F090E0909377
:10094000DB048C2FCF910895809390040895EFDFFE
:1009500080939104089521E001C0220F8A95EAF75F
:1009600080919104822BF3CF21E001C0220F8A9560
:10097000EAF7822F8095909191048923E8CFCF9355
:10098000C1E061FDC4E060FDCC0F62FDC29593E063
:10099000769567959A95E1F79B01220F331F260FF5
:1009A000371F420F531FFA0140E050E090E0619181
:1009B000DF019C01042E02C0369527950A94E2F7C8
:1009C0002695220B26272C2326272E934F5F5F4F39
:1009D0004330510561F7CF910895A82FA77023E008
:1009E000969587952A95E1F79C01220F331F820F78
:1009F000931F680F791FFB0140E050E080E02191D8
:100A000030E00A2E02C0369527950A94E2F721704D
:100A1000042E01C0220F0A94EAF7822B4F5F5F4F2A
:100A20004330510561F70895282F862F911107C093
:100A3000622F70E04AE754E0233040F008959C5F55
:100A40009230E0F7622F70E047E754E098CF9111C1
:100A500006C06AE774E0833038F0892F08959C5F00
:100A6000923030F467E774E090E0B7DF982FF5CF6D
:100A700090E0F3CF9091910421E030E0F90101C0C2
:100A8000EE0F8A95EAF7D90101C0AA0F6A95EAF735
:100A9000EA2B01C0220F4A95EAF7892F8E23E8132B
:100AA00003C0892F822B53CF2095822F8923FBCF20
:100AB000E091970490919604E91302C080E00895B4
:100AC0009F0157E0E59FF0011124E856FB4F51814B
:100AD000561306C05081581303C05581541305C0E6
:100AE0002F5F3F4FF901E770E7CF81E008958091D4
:100AF000970420919604281301C0089501968770E9
:100B0000FACF909192048095892380939204282FA4
:100B1000277061F4891751F09091940492FF06C0F8
:100B200086958695869520DF10929204089580958B
:100B3000982F80918D04892380938D040895FC0162
:100B4000F235B8F5F03508F0BBC0E03EF105F0F441
:100B5000ED3CF10508F092C0E83AF10570F4E53A91
:100B6000F10508F07BC0E130F10529F0CF010497D1
:100B7000813A910540F4CF010895CF01885A910937
:100B80004B9708F46FC0E0E0F0E0F5CFF03460F48C
:100B9000F03208F0AAC0E83EF10568F3CF019150A9
:100BA0009C0121153F41E6CFCF019F70906AFC0167
:100BB000E2CFE03882E5F807C8F5E03682E5F807CD
:100BC00008F064C0E03482E5F807D0F4E03282E552
:100BD000F80708F055C02E2F2695269590E2299FFC
:100BE000900111248E2F837041E050E002C0440F29
:100BF000551F8A95E2F7CA01822B932B9D68D7CFA8
:100C00002E2F26952695277090E2299F900111247A
:100C10008E2F837041E050E002C0440F551F8A952B
:100C2000E2F7CA01822B932B9C68C1CFE03C82E59E
:100C3000F80748F42E2F2F71E03AF245E8F5922F8D
:100C400084EF906AB4CFCF01805C9245809708F022
:100C50009ACF9E2F9F7180EF906AA9CFCF01849782
:100C60009064A5CF8E2F885AE82FF0E0EE0FFF1F7B
:100C7000ED59FE4F80819181946499CFF0657BCFCF
:100C80008E2F8F71982F81EF906A91CF2E2F2695FE
:100C90002695277090E2299F900111248E2F837052
:100CA00041E050E002C0440F551F8A95E2F7CA01A7
:100CB000822B932B9A687BCF80E0922F906277CF24
:100CC000CF0123E0880F991F2A95E1F7392F3F7054
:100CD0006E2F6F71462FE4FF04C080E1689FA00172
:100CE0001124242FC901906962CFCF019F71E6CFF3
:100CF00080E008952AB16E566F7081E001C0880FC0
:100D00006A95EAF7982F909592239AB99BB1892B0F
:100D10008BB9089589B190E06E566F7002C09595B9
:100D200087956A95E2F781700895382F25EB320395
:100D3000C001112497FF04C080589109892F08959C
:100D400080589F4FFBCF80917F0480FD14C081FDB0
:100D500014C082FD16C080917E04811581F08E3111
:100D600080F420E5829FC00111246EE170E00E94B2
:100D70009B28862F089584E1089588E2089588E0ED
:100D8000089580E5089580917F0480FD17C081FD5E
:100D900017C082FD19C080917D04811599F08832B9
:100DA00098F428E0829FC001112468E270E00E945C
:100DB0009B286115710551F0862F089562E0FCCFE4
:100DC00064E0FACF61E0F8CF68E0F6CF81E0089503
:100DD000E0916D04F0916E04309739F00190F0814C
:100DE000E02D309711F00995089580E00895E09185
:100DF0006D04F0916E04309759F026813781232BD2
:100E000039F022E0DC012C930680F781E02D099572
:100E10000895A3E0B0E0EFE0F7E00C94682820919B
:100E2000FD013091FE0128173907B1F08093FD01D3
:100E30009093FE01E0916D04F0916E04309761F0A3
:100E40000084F185E02D309739F023E029838A83EF
:100E50009B83CE01019609952396E2E00C948428A9
:100E6000A3E0B0E0E6E3F7E00C9468282091FB01F2
:100E70003091FC0128173907B1F08093FB01909362
:100E8000FC01E0916D04F0916E04309761F00084F4
:100E9000F185E02D309739F024E029838A839B8304
:100EA000CE01019609952396E2E00C9484289C01DA
:100EB000FC01329680E09FEF4081461759F0319651
:100EC0009F3F19F4411101C0982F8F5F8630A1F721
:100ED0009F3F09F40895290F311D97FD3A95F901B7
:100EE00062830895FC01329608962191261302C070
:100EF000DF011E92E817F907C1F70895DC01FB0135
:100F000011969C9111978181981322C012968C9111
:100F10001297811519F0928189131AC013968C913A
:100F20001397811519F09381891312C015968C912E
:100F30001597811519F0958189130AC014969C9113
:100F4000911521F081E02481291303C080E001C0C4
:100F500081E0817008958091080108952FB7F89479
:100F60006091F7017091F8018091F9019091FA0177
:100F70002FBF089587E797E78093000890930108B3
:100F800088E19AE00FB6F894A895809360000FBEB0
:100F900090936000FFCF0895FC012091ED01309106
:100FA000EE012617370748F06115710529F4909175
:100FB000E8009E779093E8009B0190E021153105B1
:100FC00041F4911106C08091E80082FF32C080E0B8
:100FD0000895809165048115C1F18530C1F180913A
:100FE000E80083FD30C08091E80082FDECCF809165
:100FF000E80080FFE3CF8091F3004091F200582F8A
:101000002115310519F04830510558F091E048306C
:10101000510509F090E04091E8004E774093E800D8
:10102000CDCF81918093F100215031094F5F5F4F07
:10103000E7CF80916504811541F0853041F08091C2
:10104000E80083FFC0CF81E0089582E0089583E047
:101050000895982F9093E900891771F07091EC0032
:101060002091ED005091F00021FD09C09F5F973065
:1010700089F78093E9000895762F242F50E030916E
:10108000EB003E7F3093EB003091ED003D7F3093DD
:10109000ED003091EB0031603093EB007093EC0089
:1010A0002093ED005093F0002091EE0027FDDECF5D
:1010B00008958091E70187FF13C08091E80082FFC7
:1010C00006C08091E8008B778093E80008958091B6
:1010D00065048111F2CF0895809165048115D9F3DB
:1010E0008091E80080FFF8CF8091E8008E77ECCF08
:1010F0002091E4003091E50095E6A9012091EC00F3
:10110000822F817020FF06C08091E80080FF06C01A
:1011100080E008952091E80022FD1AC080916504C6
:10112000811589F0853089F08091EB0085FD0FC035
:101130002091E4003091E50042175307F9F29150F5
:10114000E1F684E0089582E0089583E0089581E067
:101150000895CF93DF93C8EDD0E088818F7E888398
:10116000E7EDF0E080818160808384E082BF81E0F0
:101170008093E60188818E7F8883E2EE1082109250
:10118000DA00A1EEB0E01C9288818F778883888195
:101190008068888388818F7D888319BC109265045C
:1011A0001092E501109250041092E401A0EE8C918F
:1011B0008B7F8C9388818160888342E060E080E04F
:1011C00048DFA1EEB0E08C918E7F8C93E2EEF0E0F0
:1011D000808181608083808188608083E0EE80816F
:1011E0008E7F8083888180618883DF91CF9108958D
:1011F000E8EDF0E080818E7F80831092E200109213
:10120000DA001092E100A0EEB0E08C9181608C9346
:1012100080818F77808319BCA7ED8C918E7F8C9312
:1012200080818F7E80831092E601089586988E9843
:1012300080E098E08F9825E02A95F1F700002227BA
:101240007E992395880F822B8F9A25E02A95F1F7B6
:101250000000915079F70895869A27E030E090E0F9
:101260008F98AC01022E02C0559547950A94E2F77B
:1012700040FF0EC08E9A4AE04A95F1F700C08F9A5F
:101280002150310968F785E18A95F1F7000008954A
:101290008E98F1CFCF93C62F29988068DDDF8C2FF1
:1012A000DBDF299ACF91089583E08093D70484E00F
:1012B0008093D80481E08093D9048093DA0410925B
:1012C000DB0443E054E061E071E08FE090E00E94D5
:1012D000C42B60E070E0AB0183E190E00E94C42B7E
:1012E00060E982E2D7CF61E08D37910548F06DE08B
:1012F000863D26E0920720F46DE770E00E944428C6
:10130000606189E1C7CFCF9329988091250281112F
:101310000EC083E6A1DF8ADFC82F88DF982F299AC5
:101320008C2FC7FD806897FD9068CF91089580E06D
:1013300090E0FBCFACE0B0E0E0EAF9E00C94662886
:101340004F835887162F072F8B879C87DCDF282F2A
:10135000292B11F4902F812F89879A8786E0FE012F
:101360003796DE01119601900D928A95E1F7298159
:101370003A814B815C816D817E8180E090E02C968A
:10138000E4E00C948228299867DF50DF95E09A9575
:10139000F1F70000299A0895CF93DF93879A869AF0
:1013A000219A6AE58AE376DF8FE79FEA22E081509F
:1013B00090402040E1F700C0000010922502A3DF1A
:1013C00080E0E1DFC82F81E0DEDFD82F8EE3DBDFB6
:1013D000C23129F49D2FD13011F4863209F090E00A
:1013E000892F8170DF91CF9108950F931F93CF9331
:1013F000DF93EB018A0190916504943059F5809355
:10140000E9008FEF9091E80095FD06C095ED9A9563
:10141000F1F700008150B1F78091E80085FF1AC014
:1014200067DE811112C08091E80085FD06C08091C1
:10143000E8008E778093E800F3CF88818093F100F5
:101440000150104011F02196EECF8091E8008E7788
:101450008093E800DF91CF911F910F910895603242
:1014600029F440E250E0BC0182E0BFCF0895CF9361
:10147000DF93EC0148E050E0BC0181E0B6DF88E09A
:10148000FE01AFEEB1E001900D928A95E1F7DF9198
:10149000CF91089546E050E0BC0184E0A6CF43E040
:1014A00050E0BC0184E0A1CF9091940492FB2227EC
:1014B00020F9281771F080FB92F9909394046091C1
:1014C00093047091940484E090E00E94CC2B82E01D
:1014D00018CB08951F93CF93DF93122F8730B8F462
:1014E000611115C0433098F4C42FD0E0CC0FDD1F3C
:1014F00096E0899FC00DD11D1124632FCE018996DE
:101500000E94B22B612FCE018A960E94B22BDF91EE
:10151000CF911F9108950F931F93CF93DF93142FB3
:10152000022F8730F0F461111CC094E0899FE00124
:101530001124CD5ADF4F81E08427632F9E01280FAD
:10154000311D280F311DC9010E94B22B81E090E0AE
:10155000111102C083E090E0602F8C0F9D1F0E944C
:10156000B22BDF91CF911F910F910895A0E0B0E0D1
:10157000ECEBFAE00C94622808E412E080E3E82E39
:1015800082E0F82EC0E06701D0E0C43090F121E0A5
:1015900030E04D2F60E08C2F9DDFDF5F82E0C80ED2
:1015A000D11CD33091F721E030E0C43020F4F801B1
:1015B000859195919C0141E060E08C2FACDF21E0AA
:1015C00030E0C43028F4F8013296859195919C0161
:1015D00040E060E08C2F9FDFCF5F0C5F1F4F86E005
:1015E000E80EF11CC73079F6CDB7DEB7E8E00C9411
:1015F0007E28F601859195919C01CBCFCF936BE32B
:1016000072E086E894E07ADCC82F811519F086E84C
:1016100094E0EDDB9091870486E0E6E8F4E0282F83
:1016200011922A95E9F790938704E6E8F4E0ABE39A
:10163000B2E001900D928A95E1F781E0911101C02D
:1016400080E08C2BCF91089580918D04909195042A
:10165000892B90918E04911589F0892B90E02EEDC5
:1016600031E0F90140812F5F3F4F41119F5F41E021
:10167000243E3407B1F7911110928E048093DC015F
:1016800048E050E06FE674E08CED91E00E94CC28D9
:10169000892BB9F088E0ECEDF1E0AFE6B4E0019021
:1016A0000D928A95E1F7E0916D04F0916E04309708
:1016B00041F00280F381E02D309719F08CED91E03C
:1016C00009950895811531F090918D04982B909390
:1016D0008D04BACF0895811511F029DAB5CF089598
:1016E0000F931F93CF93DF938730E0F461111AC0FB
:1016F0004330C0F4C42FD0E0CC0FDD1F96E0899FAB
:10170000C00DD11D1124CE0189960E94912B082F66
:10171000CE018A960E94912B902FDF91CF911F913D
:101720000F91089580E090E0F8CFFF920F931F9300
:10173000CF93DF93F42E873018F5611121C094E028
:10174000899FE0011124CD5ADF4F81E084279E015B
:10175000280F311D280F311DC9010E94912B082F20
:1017600081E090E0F11002C083E090E08C0F9D1FBB
:101770000E94912B902FCDB7DEB7E5E00C94812825
:1017800080E090E0F8CF462F711106C0633058F426
:10179000873048F460E0A4CF7D3F41F4611103C07D
:1017A00041E0873048F080E090E008957C3FD9F731
:1017B0006111F9CF8730B8F760E0B7CFCF92DF92F1
:1017C000FF920F931F93CF93DF936C0100919104CD
:1017D00080919004082BC6E0D0E010E0C8010C2EE8
:1017E00002C0959587950A94E2F780FD0CC0219779
:1017F000A8F7F12C8F2DDF91CF911F910F91FF90C2
:10180000DF90CF900895FC2EB6018C2FBCDF97D9C6
:10181000019769F3EFCF1F93CF93DF93FC012581ED
:10182000C081D181CE01211571F0611561F0C6DF53
:10183000182F682FCE01F8D8BE01812FA4DFDF91C9
:10184000CF911F91089503D9182FF6CFCF93DF932F
:10185000EC01B4DFBE0197DF72D9DF91CF9108951B
:10186000FC012481211599F080819181EFDF282FDF
:1018700092959F70963099F060F4925F9F709230CD
:1018800030F4203FB1F038F481E0283E38F080E0B9
:1018900008959A5FF3CF81E0243FC9F7089591E05E
:1018A000213F09F090E081E0283E08F080E0892B9C
:1018B000089581E00895613923E07207810591055B
:1018C00028F4CB0181599F4F0C94912B80E008950F
:1018D000CF92DF92EF92FF92CF93DF93EC01C8801B
:1018E000D980EA80FB80B601C701E5DF9FEFC91A06
:1018F000D90AE90AF90AC882D982EA82FB82DF9111
:10190000CF91FF90EF90DF90CF90089585E290E027
:101910000E94912B863269F486E290E00E94912B1E
:10192000813039F487E290E00E94912B91E0893276
:1019300009F090E0892F81700895ADE2B0E0E3EA0C
:10194000FCE00C94582880914E04833009F0C8C202
:1019500040918604509187046091880470918904B5
:1019600080918A0490918B04E5DC20938604309367
:101970008704409388045093890460938A04709389
:101980008B0486E0E6E8F4E0DE01179601900D9204
:101990008A95E1F7009188040195109189041195C9
:1019A00009871A8786E0FE013796DE011D960190B1
:1019B0000D928A95E1F786E0FE013D969E012F5F2C
:1019C0003F4FD90101900D928A95E1F786E0F90128
:1019D000A6E8B4E001900D928A95E1F786E0E6E88A
:1019E000F4E0DE01179601900D928A95E1F786E00A
:1019F000FE013796DE01539601900D928A95E1F72C
:101A000086E0FE017396D90101900D928A95E1F767
:101A100086E0F901A6E8B4E001900D928A95E1F71D
:101A200086E0E6E8F4E0DE015F9601900D928A958B
:101A3000E1F730908A0420908B04E091D904F0E023
:101A4000EE0FFF1FE25CFE4F6081718180E090E04D
:101A50000E94DF2725E33AEF4EE85CE30E9421274E
:101A60004B015C01602F000F770B872F972F0E948F
:101A7000E1272B013C01B401C5010E940F266B0137
:101A80007C01612F110F770B872F972F0E94E12781
:101A90006DA37EA38FA398A7B401C50190580E949F
:101AA0006D2669A77AA78BA79CA79601A701B2010B
:101AB000C3010E9421274B015C0129A53AA54BA532
:101AC0005CA56DA17EA18FA198A50E9421279B01F5
:101AD000AC01B401C5010E94A9272AE939E949E905
:101AE0005EE30E9421274B015C0123E333E343E3E0
:101AF0005FE36091360270913702809138029091D5
:101B000039020E9421279B01AC01B401C5010E944A
:101B1000AA274B015C0129A53AA54BA55CA5B201FA
:101B2000C3010E9421272B013C012DA13EA14FA101
:101B300058A5B601C7010E9421279B01AC01B20143
:101B4000C3010E94AA272AE939E949E95EE30E9414
:101B500021276B017C0123E333E343E35FE36091DF
:101B600032027091330280913402909135020E94CA
:101B700021279B01AC01B601C7010E94AA276B0176
:101B80007C018092360290923702A0923802B09285
:101B9000390260933202D092330280933402F09281
:101BA000350220E030E040EC5FE3B401C5010E9463
:101BB00021274B015C0120E030E040EC5FE3B601FF
:101BC000C7010E9421276B017C018091DB049E01EB
:101BD0002F5F3F4F29A73DA7811509F4FBC0B40132
:101BE000C5010E94AE278B0177FF04C00027112793
:101BF000061B170BB601C7010E94AE27AB01CB0134
:101C000077FF04C088279927841B950B80179107BD
:101C10000CF0CBC0E12CF12C670160913002709187
:101C20003102872F880F880B982F0E94E1276DA320
:101C30007EA38FA398A760912E0270912F02872F09
:101C4000880F880B982F0E94E1272B013C0180917F
:101C5000DA04811509F4ADC02DA13EA14FA158A50C
:101C6000B401C5010E94AA274B015C019601A7019E
:101C7000B201C3010E94A9270E94AE276B017C011B
:101C8000B401C5010E94AE27AB01609330025093AE
:101C90003102C0922E02D0922F02E091D804F0E0DF
:101CA000EE0FFF1FEE5CFE4FE0819A010E2E02C088
:101CB000359527950A94E2F7C6010E2E02C0959538
:101CC00087950A94E2F7082F211581F0220E322F12
:101CD000330F330B0E2E02C0220F331F0A94E2F78C
:101CE000421B530B4093300250933102011509F40B
:101CF000F5C0380E982F990F990B02C0880F991FC5
:101D0000EA95E2F7C81AD90AC0922E02D0922F02A1
:101D100000E010E009A31AA33BA22CA286E0FE017A
:101D20007F96DE01179601900D928A95E1F786E085
:101D3000FE013796A9A5BDA501900D928A95E1F700
:101D400086E0E9A5FDA5DE01599601900D928A95E0
:101D5000E1F786E0FE017996DE01179601900D927B
:101D60008A95E1F786E0FE013796A6E8B4E0019097
:101D70000D928A95E1F786E0E0E8F4E0DE0117963F
:101D800001900D928A95E1F7809187049885892BBF
:101D90008093870433DC811102C080913A02109253
:101DA0003A02AD96E2E10C947428A12CB12C4501C5
:101DB00034CF9401A5016DA17EA18FA198A50E94A9
:101DC000A9274B015C019201A301B601C7010E9442
:101DD000AA2752CF20E030E040E05FE3B401C50124
:101DE0000E94212720912A0230912B0240912C023F
:101DF00050912D020E94AA274B015C0160932A0298
:101E000090922B0280932C02B0922D0220E030E0C1
:101E100040E05FE3B601C7010E942127209126021E
:101E20003091270240912802509129020E94AA274E
:101E30006B017C0160932602D092270280932802D6
:101E4000F0922902B401C5019F7720E030E040E81C
:101E50005FE30E941C2800E087FD1AC0B401C501A1
:101E60000E94AE27062F762F770F770B872F972F9D
:101E70000E94E1279B01AC01B401C5010E94A92782
:101E800060932A0270932B0280932C0290932D0270
:101E900020E030E040E85FE3B601C7019F770E9491
:101EA0001C2887FD1BC0B601C7010E94AE27162F54
:101EB000762F770F770B872F972F0E94E1279B01B3
:101EC000AC01B601C7010E94A92760932602709356
:101ED000270280932802909329021CCF10E01ACF8A
:101EE00080E05FCFAB0124E630E0BC0188E70E94D0
:101EF0007B259C0181E0232B09F080E008958091EF
:101F000047048115E9F02AD8DC01CB01805A9541BC
:101F1000AF4FBF4F8093480490934904A0934A0465
:101F2000B0934B048091460481110AC062E070E0D6
:101F300089EB92E0D7DF811519F081E080934604A8
:101F4000089580914704811561F0809146048115C0
:101F500041F062E070E087EB92E0C4DF8111109203
:101F600046040895CF93DF93C0914302D091440279
:101F70008A30C1F440914C04CE0185549240642FC4
:101F800070E00E944428481B842F66E00E948F283E
:101F9000C82FC11103C0DF91CF910895C15080E2D5
:101FA000E1DFF7CF8D30C1F4C554D24040914C04ED
:101FB000642F70E0CE010E944428481BCE01840F9C
:101FC000911D923010F080E090E08B5B9D4F8093EC
:101FD000430290934402DFCF96E0FE01AFE1B2E00E
:101FE00001900D929A95E1F7803E08F455C086E085
:101FF00019928A95E9F7C0914302D091440246E0D4
:1020000050E0BE018FE192E00E94CC289E01255451
:102010003240892B41F1C90145E0969587954A9553
:10202000E1F741E050E0BA0102C0660F771F8A95E0
:10203000E2F7CB016091410270914202862B972B0F
:10204000B9016B5F7F4FE5E076956795EA95E1F71B
:1020500002C0440F551F6A95E2F7842B952B80939D
:102060004102909342022A5F3F4F40914C04642FFB
:1020700070E0C9010E944428481B463010F4240F28
:10208000311D323010F020E030E02B5B3D4F2093CB
:102090004302309344027FCF96E0899FB001112420
:1020A00065547D4F46E050E0CE010E94C328A3CF87
:1020B000CF93DF93EC01FE018491811103C0DF9186
:1020C000CF9108954FDF2196F6CF0F931F93CF93B3
:1020D000DF93EC01FC0101900020E9F78F01015032
:1020E0001109C017D10728F0DF91CF911F910F91EF
:1020F0000895899137DFF5CFA2E1B0E0E2E8F0E1A1
:102100000C945A2880914704811509F46FC185E425
:1021100092E08093430290934402E091D804F0E06F
:10212000EE0FFF1FEE5CFE4F10810181E091D9049C
:10213000F0E0EE0FFF1FE25CFE4FB080A180E09167
:10214000D704F0E0EE0FFF1FE153FE4F81818F9324
:1021500080818F9397E1E92E91E0F92EFF92EF9223
:102160001F9226E0922E9F926E018DE0C80ED11C28
:10217000DF92CF920E94D9280F931F93FF92EF9284
:102180001F929F928E01095F1F4F1F930F930E9412
:10219000D928AF92BF92FF92EF921F929F927E0139
:1021A0008FEFE81AF80AFF92EF920E94D9288FEA7F
:1021B00092E07EDF9091910480919004892B0E949F
:1021C00085042DB73EB7285E3F4F0FB6F8943EBF4B
:1021D0000FBE2DBFBC2CCD2CD02E012F1E2D82303A
:1021E00009F410C108F006C1811109C189EA92E021
:1021F0005FDF85E892E05CDF8091DB04811509F404
:1022000007C18DE792E054DF8FE592E051DF8B2D1F
:102210009C2D5BDF8CE592E04BDF8D2D902F55DF01
:1022200088E592E045DF812F9F2D4FDF80914102AD
:1022300090914202892B09F4BFC080914704811517
:1022400009F4BAC0809145048111B6C058DE80916E
:10225000410290914202009709F4AEC080FBEE2447
:10226000E0F8F12C10E080FD10C041E050E0212F9B
:102270002F5F122F7A0102C0EE0CFF1C2A95E2F7A5
:10228000970128233923232B91F380914D0480FF5C
:10229000C2C0912F990F990F990F392F395F80E0A4
:1022A00023E0909302018093050130930301209372
:1022B000060124E630E047E050E060E071E088E7A6
:1022C0000E943125892B09F077C080E2189FA00178
:1022D000112480914D0480FFB0C0EFEFF1E080E267
:1022E00011928A95E9F73EE2632E31E0732E6AE29D
:1022F000862E61E0962E62E371E0D301ED913D01FF
:10230000D4010D914D01040F152F111DF0E0E15086
:10231000FE4F80E090E027E0A22EA81ABB24B394E1
:10232000082E01C0BB0C0A94EAF798012B5B3D4FC5
:102330002901D12CD2012D912D012B21B22F2A2D33
:102340002D19277030E0AB2F022E01C0AA0F0A947E
:10235000EAF7CA2E31952195310927703327AB2F23
:1023600001C0A6952A95EAF7CA2A2081C22AC0820E
:10237000D3942D2D2830F1F60196319688309105B1
:1023800051F66615770509F0B8CF04E610E020E2B3
:102390004FEF51E060E488E70E94C125892B61F48A
:1023A000E094F0948091410290914202E822F92257
:1023B000E0924102F0924202809146048115B1F010
:1023C0000E94AE07009148041091490420914A04EC
:1023D00030914B04DC01CB01801B910BA20BB30BA2
:1023E0008F3F9F4FAF4FBF4708F4ABDD6296E0E1F0
:1023F0000C947628833049F08DE892E0F9CE82EA99
:1024000092E0F6CE8BE992E0F3CE84E992E0F0CE52
:1024100085E792E0F8CE20E2129FC0011124880FD8
:10242000492F441F550B5195242F912F9295990FA9
:102430009076392F315E842F34CF4B5B5D4F04E6AD
:1024400010E020E230E0A6CFA0E1B0E0EAE2F2E165
:102450000C945A28FE013196DF0180E11D928A9585
:10246000E9F70AE310E09FE6A92EB12C21E9422EFC
:1024700023E0522E612C712C9E2E8F2E620173014F
:1024800081E148165104610471041CF080E1C82EFA
:10249000D12CA601B501892D982D0E94A32BAC0C3F
:1024A000BD1C0D2C000C00084C185D08600870085D
:1024B0000150104019F76096E0E10C9476286FEF18
:1024C00085E290E00E94B22B6FEF86E290E00E94DE
:1024D000B22B6FEF87E290E00E94B22B60E088E2BF
:1024E00090E00E94B22B42D8AFDF66E285E290E036
:1024F0000E94B22B61E086E290E00E94B22B69E27A
:1025000087E290E00C94B22B1F921FB61F92112409
:102510008F939F93AF93BF9380914F04811113C00A
:102520008091F7019091F801A091F901B091FA0121
:102530004196A11DB11D8093F7019093F801A093DE
:10254000F901B093FA01BF91AF919F918F911F90C4
:102550001FBE1F9018952FB7F8948091F7019091A6
:10256000F801A091F901B091FA012FBF0895CF931E
:10257000DF93EC01F0DF8C1B9D0BDF91CF91089571
:102580000F931F93CF93A0E6B1E031E0C0E02D910F
:102590002F3F11F480E010C0E22FE295EF70E05E73
:1025A000F0E0808190E02F7002C0959587952A9584
:1025B000E2F780FDEFCF832FC82B330F81E0A336E6
:1025C000B80729F780916A048C1315C080916804BC
:1025D0008115D9F00091660410916704BCDF801B5F
:1025E000910B059790F080916904C813C09369041A
:1025F000109268040AC0C0936A0481E08093680462
:10260000AADF8093660490936704CF911F910F9186
:102610000895A1DF9C019091820480918304982BFE
:1026200021F020936204309363049091840480919C
:102630008504982B21F0209360043093610480E896
:1026400094E00C94F706611509F459C0E82FED5C8D
:10265000E33150F4F0E0EF50F44D0C94AE280E94BA
:10266000A306819580938304D4CF0E94A306FACF5A
:102670000E94A306819580938204F6CF0E94A30650
:10268000FACF0E94C30680938404EECF0E94C30653
:102690008195F9CF0E94C306819580938504E4CF8C
:1026A0000E94C306FACF482F415D550B21E001C0BF
:1026B000220F4A95EAF790918104922B909381041E
:1026C00040918704815D21E001C0220F8A95EAF7DD
:1026D000822F611509F48AC0422B409387040C9421
:1026E000FE0A80917F04816080937F04BDCF80913A
:1026F0007F048260F9CF80917F048460F5CF909150
:102700008204482F50E08D3C59F42091830427FF28
:102710000DC01092830491110BC010927E0408C06A
:102720008E3CA9F42091830412169CF39115A9F014
:102730009091840420918504922B11F410927D04D1
:10274000415D51094830510508F4BACF8DCF8F3C17
:1027500039F497FFEBCF1092820490918304DBCF82
:10276000803D19F41916BCF3E1CF20918404893D12
:1027700029F41216DCF610928404D8CF8A3D19F49D
:1027800027FFD4CFF8CF209185048B3D29F427FF74
:10279000CDCF10928504CACF8C3D19F41216CCF31C
:1027A000C5CF282F215D283070F4FA01E15D21E0CA
:1027B00001C0220FEA95EAF7209530918104232386
:1027C00020938104B3CF20917F042E7F8D3D59F05B
:1027D00020917F042D7F8E3D31F08F3D09F0A6CFF3
:1027E00020917F042B7F20937F04A0CF80954823E6
:1027F00074CFCF93C82F8115A9F08450813AA0F4EB
:10280000EEEDF1E084EE91E02081C217E9F131961E
:102810008E179F07C9F76C2F8CED91E00E94570728
:102820000E94240BCF9108958C2F805E883060F435
:10283000C77021E001C0220FCA95EAF780918D048C
:10284000822B80938D04ECCF8C2F855A833030F40B
:102850008C2F8452990B0E940907E4CFEC2FE85A81
:10286000EB3150F4F0E0EE0FFF1FE756FE4F808192
:1028700091810E943007D6CF8C2F8D5C833190F6EA
:1028800061E08C2FE0DECECF6C2F8CED91E00E94CA
:1028900072070E94240BBFCF811581F1982F9450AD
:1028A000913A38F4682F8CED91E00E9472070C94F5
:1028B000240B982F905E983058F4982F81E091FD6A
:1028C00084E090FD880F92FD82950E949705EFCFDE
:1028D000982F955A933020F480E090E00C940907EB
:1028E000982F985A9B3120F480E090E00C943007A8
:1028F000982F9D5C933110F460E0A5CE08951F934E
:10290000CF93DF93182FEB0174DF209731F4812FE1
:10291000C3DFDF91CF911F9108958FE99FE0019769
:10292000F1F700C000002197F0CF10928D04EEED7A
:10293000F1E086E011928A95E9F780E090E00E944C
:10294000090780E090E00E943007109295040E94F1
:10295000240BE0E8F4E086E011928A95E9F7109202
:102960007E0410927D0410927F0453CEDEDF8FEF41
:1029700094E32CE0815090402040E1F700C000003B
:1029800088E19AE00FB6F894A895809360000FBE96
:1029900090936000FFCFA4E0B0E0E1EDF4E10C948F
:1029A0005D287C01FC018481811509F405C161E089
:1029B000C7010E940B0C8C0101158EE7180709F066
:1029C00062C0F7018581811509F18091D70490E0FB
:1029D000019665E070E00E9444288093D7044091FE
:1029E000D7045091D8046091D9047091DA048FE033
:1029F00090E00E94C42BE091D704F0E0EE0FFF1F9F
:102A0000E153FE4F808191810E947309F701858116
:102A1000811509F401C4980137572038310508F0B1
:102A2000E2C3003108F0B9C060E973E080E090E0F3
:102A30000E945B0C8111B1C0A12CB12C4501011188
:102A400078C089829A82AB82BC828E010F5F1F4F51
:102A5000C8010E94680CB02EA12E813008F49DC0E0
:102A600009F0C6C0C8010E94680C813009F075C029
:102A7000C8010E94680C60E570E0893311F060E0E5
:102A800070E03DDFE5CF01308EE71807E1F4F70194
:102A90008581811509F4BACF8091D80490E0019620
:102AA00066E070E00E9444288093D8044091D704E7
:102AB0005091D8046091D9047091DA048FE090E0CD
:102AC0000E94C42BA3CF02308EE7180709F076C30B
:102AD000F7018581811509F499CF8091D90490E09F
:102AE000019669E070E00E9444288093D904DECF0B
:102AF000F7018581811509F489CF8091D90490E08F
:102B00000896EFCFF7018581811509F47FCF809179
:102B1000DA0481958093DA04C9CFF70185818115A4
:102B200009F474CF8091DB0491E089278093DB0462
:102B30006DCF81E9881683E09806A104B10469F19C
:102B4000B401C5010E945B0C9FEF891A990AA90A7A
:102B5000B90A8111EECF015072CF823029F4C80139
:102B60000E94680C46DE74CF833029F4C8010E94AD
:102B7000680C92DE6DCF843071F4C8010E94680C3D
:102B8000C12CD12C282F2053330B2A303105C0F013
:102B9000C114D10419F581115BCF80919204877023
:102BA00059F0F7018581811539F08091940482FFF5
:102BB00003C082E00E9481052496EDE00C94792800
:102BC0004AE04C9DC0014D9D900D1124280F391FE6
:102BD00069018B2D9A2D0E94680CD4CFEFE9FFE09C
:102BE0003197F1F700C0000091E0C91AD108D0CFA9
:102BF000E82FF0E0E35BF74F9491792E282F26958C
:102C00002695269530E0F901E35CF74FC490877074
:102C1000D12C082E02C0D594C7940A94E2F7F9018A
:102C2000E35DF74FA490B12C082E02C0B594A79491
:102C30000A94E2F7235E374FF9018490912C02C089
:102C4000959487948A95E2F7C0FE02C081EED1DDAB
:102C5000A0FE02C086EECDDD60E070E0872D4FDE85
:102C6000A0FE02C086EE18DEC0FE02C081EE14DEB9
:102C700080FEEECE60E070E08CE203CF07379CE789
:102C80001907F1F008379CE7190749F19801205E10
:102C900032452032310548F5811139C00F7181E08C
:102CA00090E002C0880F991F0A95E2F78C01682F07
:102CB00083E090E00E94B22B802F0E94A4046DCF8D
:102CC000811549F081E00E94AB0443E062E081E0BD
:102CD0000E943A0562CF81E00E94B404F6CF8115CC
:102CE00011F082E0F0CF82E0F7CF8115B9F10B351A
:102CF0009CE7190751F10C359CE71907D9F00A3503
:102D00009CE7190701F101309CE7190731F1033005
:102D10009CE71907E1F001151C4701F506DE8FEF6E
:102D200094E32CE0815090402040E1F700C0000087
:102D30000E94BA0780919404002482FF0394802D9E
:102D40000E94540A2ACF81E0FBCF80E0F9CF6FEFD9
:102D50007FEF80E090E00E94CC2B08DEF70100813D
:102D60001181811509F447C0C8010E94DE0BD82EDD
:102D7000682FC8010E941405B8018D2D0E94C30B55
:102D80000E949F05182FA92EF701C580D680D294E6
:102D90008FE0D82280919204877001F1BC2CC1147D
:102DA000F1F0892F807F803461F0812F805E883040
:102DB000A8F0892F807E803221F4123078F0D1146F
:102DC00069F08091940482FF09C082E00E9481052D
:102DD000809192048770BB24B3948111B12CEA2DA9
:102DE000E295EF708A2D803C08F067C0F0E0EC5F60
:102DF000F34D0C94AE28C8010E942705D82EBCCFF5
:102E00000A2D0F70803110F00295007FC114B9F0C7
:102E1000011569F0812F805E883010F0111109C012
:102E200080918D04802B80938D040E94240B812F30
:102E30003EC080919504802B80939504F6CF812F1E
:102E40002BDD0115D1F1812F805E883010F011113A
:102E500004C0802F0E94970506C0009580919504BC
:102E60008023809395040E94240B27C00A2D0F70A5
:102E7000807F803211F00295007F113040F009F41C
:102E800063C0C11409F46EC0D11499F1D0CF809100
:102E9000940482FD2AC0C11461F0011539F08091BB
:102EA0008D04802B80938D040E94240B80E0A1DC94
:102EB00004C080E0F1DC0111CCCFB11409F4AFC043
:102EC0008091920480FDABC0F701158286958695AE
:102ED00086950E94AB04C7015EDD809192048695C1
:102EE000869586950E94B4049AC0C11499F0D110B9
:102EF00004C0802F0E94620BE0CF8D2D8130E9F657
:102F000080918E04902F98230917B9F2802B80931B
:102F10008E04D3CFD110D1CF802F0E946B0B909114
:102F20008E04802F892329F0802F80958923809318
:102F30008E0480918F04902F982309F4BECF0095C2
:102F4000082300938F04B9CF8D2DC11421F0863052
:102F500008F0B3CFCECF853008F0AFCF802F0E94DE
:102F60006B0BABCFD114D1F3193349F48FEF97EE3C
:102F700023E0815090402040E1F700C00000812F05
:102F80008BDC9BCF869586958370813060F009F04D
:102F900094CF812F9A2D9370C11002C080E090E0F1
:102FA0000E9430078ACF812F9A2D9370C11002C0E2
:102FB00080E090E00E94090780CF6C2D812F43DBD9
:102FC0007CCF8370E1F5C11028C0812F8295869552
:102FD0008770880F880F412F4F70082E01C0440F53
:102FE0000A94EAF7212F207114FF06C02FE001C0D8
:102FF000220F8A95EAF720958A2D8695869583700B
:10300000982F8230A1F08330B9F0809190049130F4
:1030100059F0242B82230E94A4040E94E80660E059
:10302000C7010E940B0CC8CD842B822BF4CF242B1C
:10303000809190048227EFCF822F842BECCFC11494
:1030400059F1A0FEEACF812F829586958770880F6F
:10305000880F412F4F70082E01C0440F0A94EAF7E1
:10306000212F207114FF06C02FE001C0220F8A9586
:10307000EAF720958A2D869586958370982F823061
:1030800091F08330A9F080919104913049F0242B84
:1030900082230E94A704C1CF823008F4BECFD3CFD1
:1030A000842B822BF6CF242B809191048227F1CFA1
:1030B000822F842BEECF8F70082FC11431F00E9425
:1030C000AB04812F0E94620BA8CF812F0E946B0B53
:1030D000802F0E94B404A1CF123F79F168F4103F11
:1030E000C1F0113F89F0C11409F455C0D11409F49D
:1030F0004FC0812F7EDB91CF133F29F1143F99F709
:103100009091940492FD2CC08A2D8F71C11409F303
:1031100017C08D2DC11479F0853008F07ECF8A2D2F
:103120008F71282F81E001C0880F2A95EAF79091CE
:1031300091048927AECF8630F0CF8F71C110C9CFEF
:103140000E94AB046ACF80E0C11409F4A2CF8A2D9B
:103150008F71982F81E001C0880F9A95EAF799CF77
:10316000C11459F08F7192FFEBCF982F990F990FDF
:10317000990F936090939204E3CF81E00E948105C0
:103180008D2D823008F449CF82E00E94810545CF21
:103190008A2D8F71D5CFD11471F0193349F48FEF87
:1031A00097EE23E0815090402040E1F700C00000FE
:1031B000812F72DB32CF8A2D8F718BCF03308EE758
:1031C000180709F495CC06308EE7180709F49ACC55
:1031D00005308EE7180709F4A0CC04308EE71807F5
:1031E00009F4A0CC13CC06319CE7190709F046CDB1
:1031F00080918D048A7A91E0811101C090E09093D2
:103200008C0465E3811101C069E28CED91E00E94BC
:1032100057070E94240BC1CC06319CE7190709F01F
:103220002DCD80918C0465E3811101C069E28CEDA4
:1032300091E00E947207EDCF8091D604803170F446
:103240008091D504811551F0E09197042091960466
:103250003091D1044091D0042E1301C00895BF01D4
:1032600087E0E89FF0011124DF01A856BB4F1496B8
:103270008C911497811551F111968C9111978313AC
:1032800025C08C91841322C015968C9115978111BD
:103290001DC012968D919D91A091D204B091D3043E
:1032A0008A1B9B0B883C910588F48091D6048F7013
:1032B00080618093D604E256FB4F80818F708061DD
:1032C000808380ED94E067DB0C9477056F5F7F4F20
:1032D000FB01E770C1CFADE0B0E0E1E7F9E10C94AC
:1032E0005D288C0186E0F801DE01189601900D92B0
:1032F0008A95E1F7F801F580848190ED892E94E0BC
:10330000992E7090D404711017C0811591F0F114AA
:1033100009F40EC1C8010E94300C811509F408C1DE
:1033200087E0F801A0EDB4E001900D928A95E1F7F5
:1033300083DFFF24F39455C0D080A280B380C09077
:10334000D5042091D2043091D304A501421B530B24
:10335000C11409F4BDC0483C510508F076C0811580
:1033600041F38091D1049180E090D6049E2D90315C
:1033700008F057C0981214C08091D0048D1110C06D
:10338000F11049C08E2D8F7080618093D60480ED3E
:1033900094E001DB8091D604F8018683F12C21C0F2
:1033A000F11039C040E0692D8D2D0E94580540E094
:1033B000692D8D2D0E945805F82E8111EFCF88853B
:1033C00099850E94260C292F22952F70903470F435
:1033D0009F70223098F09115A9F0F80196819031F4
:1033E00088F48F2D2D96EDE00C9479282A5F2F70AC
:1033F000223060F0C801CFDAFC2CF3CF911511F028
:10340000811579F3805E883060F3F4CF803F48F314
:10341000815F8330F9CF8091D60481608093D60498
:10342000BDCF981237C08091D0048D1133C0F110F8
:1034300031C0E682C801AFDA87E0F801A0EDB4E060
:1034400001900D928A95E1F774CFE090D6049E2DFD
:10345000903148F480ED94E09EDAF40187E0119217
:103460008A95E9F79BCF811509F463CF9091D10438
:10347000818198130FC08091D0048D110BC0F11081
:1034800009C0E682C80187DAF40187E011928A95C3
:10349000E9F74FCFC8010E94300C811509F448C0EC
:1034A000F11409F445C08E2D803208F439CF809193
:1034B000D0049091D10489839A83AB82BC827D82AF
:1034C0001E828091D6048F83CE01019664DA28CFC4
:1034D000483C510508F0C1CF811509F42ACFF114F9
:1034E00039F19091D1048181981318C08091D00452
:1034F0008D1114C08091D60480FD9ECF803108F4D8
:103500009BCF8683807F803F09F494CF8681982F5C
:10351000907F905F8F70892B86838CCFC8010E942B
:10352000300C8111FDCE8091D60481608093D60449
:10353000C80131DAFECEABE1B0E0E1EAFAE10C9489
:1035400066284E8B5F8B688F798F8A8F192F9B8FA0
:103550009111109295041D8A86E0FE017696DE0197
:103560001F9601900D928A95E1F70A8D011561F081
:103570000B8B1C8B61E0CE010F960E940B0C61E05F
:10358000CE010F960E940B0C0B8B1C8B87E0FE016B
:103590003F96DE01189601900D928A95E1F7CE01D3
:1035A000089699DE81112EC02091960430919704DF
:1035B00087E0AE01485F5F4FFA0147505109DA01D9
:1035C00001900D928A95E1F78C858115D9F0822FB3
:1035D00090E08395877090E0AC0134171506E1F018
:1035E00097E0929FD0011124A856BB4F9E012F5FF8
:1035F0003F4FF90101900D929A95E1F7409396049F
:103600000E9477058091970490919604891310C0C9
:103610006B96E4E00C94822888D91092960410925C
:103620009704E0EDF4E087E011928A95E9F7EACF9C
:1036300027E0829FC001112488569B4F4CDE8115E4
:1036400039F3809197049091980401968770809344
:103650009704D8CFA6E0B0E0E0E3FBE10C94662845
:103660000E94AB128C0180916B0490916C048017C6
:10367000910771F019821A820E94AB12BC01498134
:103680005A8180E090E057DF00936B0410936C0444
:103690002696E4E00C948228AAE2B0E0E2E5FBE1A1
:1036A0000C94672887EE91E0FC0101962091F100CF
:1036B000208321E08F3E9207B9F78091E80189309D
:1036C00009F459C0C8F4823009F4B7C0833009F452
:1036D00086C0813089F18091E80083FFEBC0809142
:1036E000E7019091E8019A3008F0E4C0E92FF0E09A
:1036F000E05FF34D0C94AE288A3009F48DC08B3016
:1037000051F78091E701813231F78091EB0190917F
:10371000EC01892B01F78091E800877F8093E80016
:103720000E94590881E09091E901911101C080E067
:1037300080930901FAD8CFCF8091E701813A59F6F9
:103740008091E800877F8093E8008091EB01909161
:10375000EC01892B61F060E080E090E070E00E9475
:10376000CC078091E8008B778093E800B4CF68E0C5
:103770008FEE91E0F3CF8091E701813209F0ABCF7A
:103780008091EB019091EC018D7F892B09F0A3CF03
:103790008091E800877F8093E8008091E80082FFB5
:1037A00019C02091F3008091F200922F029731F41A
:1037B0008091F100813011F0863021F48091F10088
:1037C000809308018091E8008B778093E8000E9445
:1037D000590881CF809165048111DFCF7CCF809122
:1037E000E701813A09F077CF8091EB019091EC01EC
:1037F000892B09F070CF8091E800877F8093E800E3
:103800008091E80080FFFCCF809109018093F10056
:103810008091E8008E77D9CF8091E701813209F05D
:103820005ACF8091E800877F8093E8000E94590872
:103830008091EA01809307014ECF8091E701813AA0
:1038400009F049CF8091E800877F8093E80080915C
:10385000E80080FFFCCF80910701D8CF803889F045
:10386000823841F58091EB018F70873018F5809395
:10387000E9008091EB0085FB882780F91092E90030
:1038800006C080915004880F9091E401892B90919B
:10389000E800977F9093E8008093F1001092F10088
:1038A0008091E8008E7723C0811116C08091E901D4
:1038B000813011F18091E80083FF0AC08091E80017
:1038C000877F8093E8008091EB0080628093EB001B
:1038D000AA96E3E00C948328823061F78091E90195
:1038E000811581F01092E9008091E800877F809334
:1038F000E8000E945908DECF933009F080E0809301
:103900005004F0CF8091EB018F70282F215026308A
:1039100088F68093E9002091EB0020FFE3CF9330FD
:1039200031F48091EB0080628093EB00DBCF9091CB
:10393000EB0090619093EB0021E001C0220F8A958B
:10394000EAF72093EA001092EA008091EB00886089
:10395000EBCF8111AFCF8091E9018F77182F809144
:10396000E3008078812B8093E3008091E800877FDB
:103970008093E8000E9459088091E80080FFFCCF06
:103980008091E30080688093E30083E0111101C01F
:1039900082E0809365048ECF8058823008F08ACF11
:1039A0008091E9019091EA018C3D23E0920791F525
:1039B00083E08A838AE289834FB7F894DE01139605
:1039C00020E03EE051E2E32FF0E050935700849175
:1039D00020FF03C082958F703F5F8F708A30C0F0E8
:1039E000895C8D931D922F5F243169F74FBF8091C1
:1039F000E800877F8093E8006AE270E0CE010196DC
:103A00000E94CC078091E8008B778093E80052CF2A
:103A1000805DE7CF292F30E02330310509F44DC018
:103A200078F52130310509F47CC08BE590E0EDE8B4
:103A3000F1E02230310509F03DCF2091E800277FE9
:103A40002093E8002091ED013091EE018217930759
:103A500008F49C0140E02115310509F067C04111CF
:103A600065C08091E80082FDCDCF8091650481150D
:103A700049F2853039F28091E80083FFF2CFC2CF5E
:103A80008091EB019091EC0121323105D9F1223284
:103A9000310509F00FCF8330910508F00BCFFC0101
:103AA000EE0FFF1FE25EFE4F0190F081E02D855E7C
:103AB0009E4FDC018C9190E011C0282F30E08130C6
:103AC00089F022303105B1F0232B09F0F3CEECE27E
:103AD000F2E0E4918E2F90E0ECE2F2E0009709F43E
:103AE000E9CEABCFEEE1F2E0E4918E2F90E0EEE193
:103AF000F2E0F4CFEAEFF1E0E4918E2F90E0EAEF0C
:103B0000F1E0ECCF8330910508F0D4CE880F991FF7
:103B1000FC01EC5DFE4F0190F081E02D89E090E02A
:103B20008CCF82E190E0E8EEF1E087CF80916504F0
:103B3000811509F467CF853009F464CF8091E800DE
:103B400083FD60CF8091E80082FD8BCF8091E800FB
:103B500080FF81CF4091F3008091F200942F2115D6
:103B6000310519F08830910550F041E0089709F0CF
:103B700040E08091E8008E778093E8006CCF44911C
:103B80004093F1003196215031090196E8CF8038F9
:103B900009F090CE8091E800877F8093E8008091C3
:103BA000E5018093F1007CCE811184CE8091E90102
:103BB000182F823008F07ECE8091E800877F8093B6
:103BC000E8001093E5010E9459081115F9F084E00E
:103BD0008093650442E061EC81E00E94290842E2A2
:103BE00061EC84E00E94290842E261EC82E00E94DC
:103BF000290842E260EC83E00E9429088091650474
:103C0000843051F482E080930A0154CE8091E30025
:103C100087FDDDCF81E0DCCF81E0F5CFCDB7DEB72A
:103C2000AC970FB6F894DEBF0FBECDBF85B78068E6
:103C300085BF85B7806885BF84B7877F84BF0FB68F
:103C4000F894A8958091600088618093600010923C
:103C500060000FBE80E890E00FB6F894809361009A
:103C6000909361000FBE81E080930A0188E796E09F
:103C70008093DA019093DB010E94F8080E94A90862
:103C80008091E20084608093E200789480916504E2
:103C9000811591F08091E9001091EC008F7010FB7C
:103CA000112717F9182B1092E9008091E80083FD85
:103CB000F3DC1F701093E90082E084BD93E095BDB2
:103CC0009AEF97BD80936E000E94860C811102C00E
:103CD0000E945F12E7E5F4E088E011928A95E9F727
:103CE00081E08093560460E080E00E947A0661E003
:103CF00080E00E947A068FE891E00197F1F700C01A
:103D0000000010E080915604181708F46BC0A0E67C
:103D1000B1E041E08D918F3F09F076C081E0A3369C
:103D2000B807C1F71092690410926A048FE090E01E
:103D30000E94992B6093D7047093D8048093D90480
:103D40009093DA04663010F00E94540980E090E00D
:103D50000E949E2B833E9E4F21F40E94860C81116F
:103D60001DC063EE7EEF80E090E00E94CC2B60E00F
:103D700082E090E00E94B22B81E08093900461E0A9
:103D800083E090E00E94B22B60E074E184E090E078
:103D90000E94CC2B0E945F120E94540982E090E0A6
:103DA0000E94912B8093520484E090E00E949E2B0D
:103DB00080939304909394040E94C0128FE39CE933
:103DC0000197F1F700C000000E94C01280916904C1
:103DD00080FF2EC06FEF7FEF80E090E00E94CC2B41
:103DE0000E94BA0760E0812F0E948A06082F61E0D6
:103DF000812F0E948A06E12FF0E0EB5AFB4F880FDB
:103E0000802B80831F5F7ECFE82FE295EF70F0E07C
:103E100021A18F70642F01C0660F8A95EAF7962F53
:103E20009095922391A392A1862F892B82A376CF7E
:103E300083E090E00E94912B0E94A4048091910461
:103E40000E94970482E080934D0480E880934C04A4
:103E5000D5D56BE070E082E198E00E94720F811589
:103E6000E9F180914D0465E070E081FD7FC08DE057
:103E700098E00E94720F811589F16DE070E08BEF80
:103E800097E00E94720F811549F10E94AE07DC0194
:103E9000CB01805A9541AF4FBF4F80934804909318
:103EA0004904A0934A04B0934B04E5E4F2E0DF0137
:103EB00080E092E01D920197E9F7E0934302F093CE
:103EC00044028FEF9FEF809341029093420281E082
:103ED0008093470480934604109245040E94CC09C5
:103EE000811147C081E080934E04E091D704F0E057
:103EF000EE0FFF1FE153FE4F808191810E947309F5
:103F000060E982E20E944A098BE091E080936D04AF
:103F100090936E0401E010E47E018FEFE81AF80A36
:103F200080916504853041F480916504853019F1F4
:103F30000E9495140E94E8060E94C01280905304CB
:103F400070906904781068C085DBB12C80915F04A3
:103F5000811551F08091590410925F0480935A04A6
:103F60008091570480935804C12CE5C088E098E004
:103F700080CF83E0B8CF80916504843039F10E940E
:103F8000A10F0E949D0C10924F0488E190E00FB6A3
:103F9000F894A895809360000FBE1093600083B7DB
:103FA000817F846083BF83B7816083BF7894889565
:103FB00083B78E7F83BF0FB6F894A8958091600079
:103FC000886180936000109260000FBE0E94C01252
:103FD0008091690480935104811509F4A5CF8091E3
:103FE0005004811509F4A0CF80E189BD82E189BD2B
:103FF00009B400FEFDCF8091D8008F7D8093D8005A
:104000008091E00082608093E0008091E00081FD7B
:10401000FCCF0E94951488CF8724C12CD12C9924E1
:104020009394892D882179F4990C8FEFC81AD80AB6
:1040300083E0C816D104A9F7709253040E94AE071A
:10404000BB24B39483CF692C672061E0A62E0C2C8F
:1040500001C0AA0C0A94EAF78091510490E08A21E9
:10406000892B49F06110E0CFA09480915104A822DF
:10407000A0925104D9CFC9821A820E94AB128B83BD
:104080009C830D8391E0611001C090E09E83498183
:104090005A816B817C818D814EDAE4CFA0905A04E5
:1040A000D090590461E08C2D0E948A06982E60E021
:1040B0008C2D0E948A06990C89292C2D30E0D9017B
:1040C000AB5ABB4FEC919E2F9370891799F1EE0F6D
:1040D000EE0FE82BEC93EF70F0E0E05BFE4F2C5A14
:1040E0003B4F8081F9019081890F84300CF44EC0E0
:1040F0004D2D50E0BA016395637070E0A616170667
:1041000081F0495A5B4F9C2D9F77FA0194839D2D36
:104110009F5F937090935904909157049F5F909381
:104120005704982F990F990B64E070E00E949B2828
:10413000F9018083C39480915604C81608F4AECF69
:10414000D12C4CEFA42E5DEF952E80915A049091C6
:104150005904981709F450C0E82FF0E0E55AFB4FD6
:10416000C080DC2CE894D7F88F5F837080935A046A
:10417000809158048F5F80935804C7FC18C0D9A25F
:10418000AAA20E94AB1223E0822E17C08D3F4CF6EC
:104190004D2D50E0BA016395637070E0A6161706C6
:1041A00009F4BFCF495A5B4F9C2D9068AECFD9A27E
:1041B0009AA20E94AB1232E0832EBC018BA39CA377
:1041C0008DA20EA349A15AA1882D91E0B4D9DFA2F6
:1041D000C7FE10C098A60E94AB12BC0189A79AA77F
:1041E0008BA61CA64FA158A5882D90E0A4D9DD244C
:1041F000D394ABCFA8A6EFCFD11419F00E94AE078D
:10420000BD2C0E949D0C811539F00E94AE070E94C2
:104210007C100E947F0F04C00E947C10B110F9CF67
:1042200086E0E0E8F4E0D70101900D928A95E1F78D
:1042300010928204109283041092840410928504D8
:104240008B819C81892B09F443C0C0906204D0907B
:1042500063040E94AB128C199D099C0190917E040D
:10426000911509F426C22531310590F19F3F19F0CF
:104270009F5F90937E04DB80D11459F00E94A306C7
:1042800091E01D140CF09FEF899F802D11248093E5
:104290008204DC80D11459F00E94A30691E01D1421
:1042A0000CF09FEF899F802D1124809383048091CF
:1042B0008204811569F0D0908304D11449F00E94E2
:1042C0009506809382048D2D0E9495068093830429
:1042D0008D819E81892B09F443C0C0906004D090E9
:1042E00061040E94AB128C199D099C0190917D0480
:1042F000911509F4D9C12135310590F19F3F19F08D
:104300009F5F90937D04DD80D11459F00E94C30615
:1043100091E01D140CF09FEF899F802D1124809354
:104320008404DE80D11459F00E94C30691E01D146C
:104330000CF09FEF899F802D11248093850480913C
:104340008404811569F0D0908504D11449F00E944D
:104350009506809384048D2D0E9495068093850494
:10436000B70180E894E00E947E0781110CC0809123
:10437000820490918304892B90918404892B9091DD
:104380008504892B11F00E94091386E0F701A0E84B
:10439000B4E001900D928A95E1F70E94E8069091B1
:1043A0006404891721F0809364040E94AE07809111
:1043B0006504843009F0B4CD83E08093E9008091F6
:1043C000E80082FFADCD8091E80090E085FF05C058
:1043D0000E947808811589F091E08091E8008B7740
:1043E0008093E800911509F49BCDE981E150E53116
:1043F00070F5F0E0E65EF34DB1C680E2A82EB12C78
:1044000067018091E80085FD0AC08091E8008B7704
:104410008093E8000E947808811599F3DDCF8091A0
:10442000F100F601808381E0A81AB108A9F28FEFAC
:10443000C81AD80AE6CF1A828CE08B831AC08A8108
:10444000833081F138F4813029F1823051F08FEFDF
:1044500089830FC08430D9F71B821C821D821E8283
:1044600008C088E290E00E94912B1B821C821D8272
:104470008E83E0916D04F0916E04309709F450CD75
:104480000284F385E02D309709F44ACD60E2C7013C
:10449000099546CD0E94AE0767D66B837C838D83DA
:1044A0009E83E7CF8B818111E4CF1C82E2CF8A818A
:1044B000823019F08530E9F2CACF6B817C818D8121
:1044C0009E8152D688E290E00E94B22BD2CF4C81DE
:1044D0006B818A810E94700B9827892798278D838A
:1044E0009E83C7CF2D813E813227232732274C81DF
:1044F0006B818A810E946A0ABCCF0E94B60AB9CF3A
:1045000080E18A83B6CF83E08A8381E996CF4A80AF
:104510005B80542445245424612C712C57018C81D8
:104520006701C80ED11CAC14BD0409F4A2CF81E907
:10453000481683E058066104710480F4C201815971
:104540009F4F0E94912BF50184838FEFA81AB80A20
:104550008FEF481A580A680A780AE5CF80E0F3CF4F
:104560003C808A809B80982489249824A12CB12C9B
:10457000670125013201431451046104710408F0FC
:1045800078CF81E9881683E09806A104B10438F455
:10459000F6016481C40181599F4F0E94B22B8FEFB5
:1045A000481A580A680A780A8FEF881A980AA80ADF
:1045B000B80A8FEFC81AD80ADECF0E94241259CF4A
:1045C00087E09FCF3C808A809B8098248924982410
:1045D000A12CB12C250132016E0185E0C80ED11C41
:1045E000431451046104710408F043CF8AE2881631
:1045F0009104A104B10490F4C40189960E94912B06
:10460000F60181936F018FEF481A580A680A780AF9
:104610008FEF881A980AA80AB80AE2CF80E0F0CF94
:104620003C808A809B80982489249824A12CB12CDA
:10463000670125013201431451046104710408F03B
:1046400018CF8AE288169104A104B10430F4F6016F
:104650006481C40189960E94B22B8FEF481A580AD0
:10466000680A780A8FEF881A980AA80AB80A8FEFA2
:10467000C81AD80AE0CF41E08C81811101C040E026
:104680006B818A810E94950B27CF2D813E81322735
:104690002327322741E08C81811101C040E06B81EA
:1046A0008A810E948B0AE5CE2B30310508F028CE96
:1046B00057CE2B30310508F0DBCD0ACE78941F920F
:1046C0001FB61F9211248F939F93AF93BF93809136
:1046D000F7019091F801A091F901B091FA010196CA
:1046E000A11DB11D8093F7019093F801A093F901EA
:1046F000B093FA01BF91AF919F918F911F901FBE10
:104700001F9018951F920F920FB60F9211242F939E
:104710003F934F935F936F937F938F939F93AF9349
:10472000BF93EF93FF938091E10082FF09C08091D6
:10473000E20082FF05C08091E1008B7F8093E10061
:104740008091DA0080FF24C08091D80080FF20C0D3
:104750008091DA008E7F8093DA008091D90080FF0B
:10476000A9C080E189BD82E189BD09B400FEFDCF09
:1047700081E0809365048091E601811109C00E9467
:10478000F8080E94A9088091E20084608093E2000A
:104790008091E10080FF1AC08091E20080FF16C086
:1047A0008091E2008E7F8093E2008091E200806140
:1047B0008093E2008091D80080628093D80019BC79
:1047C00085E08093650483E080930A018091E10095
:1047D00084FF2FC08091E20084FF2BC080E189BD5F
:1047E00082E189BD09B400FEFDCF8091D8008F7DA4
:1047F0008093D8008091E1008F7E8093E1008091CA
:10480000E2008F7E8093E2008091E20081608093DD
:10481000E2008091E501811509F452C084E08093A3
:10482000650480916504843009F052C082E0809371
:104830000A018091E10083FF2CC08091E20083FF98
:1048400028C08091E100877F8093E10082E080931F
:1048500065041092E5018091E1008E7F8093E10074
:104860008091E2008E7F8093E2008091E20080617F
:104870008093E20042E060E080E00E94290880919D
:10488000F00088608093F00081E080930A018093BB
:104890000901FF91EF91BF91AF919F918F917F910E
:1048A0006F915F914F913F912F910F900FBE0F909D
:1048B0001F90189519BC109265041092E60168CFFC
:1048C0008091E30087FF02C083E0A9CF81E0A7CFFA
:1048D00081E0ADCF1F920F920FB60F9211241F935C
:1048E0002F933F934F935F936F937F938F939F93F8
:1048F000AF93BF93CF93DF93EF93FF93E9EEF0E095
:1049000080811091EC008F7010FB112717F9182B84
:104910001082C0EFD0E08881877F888378940E94DE
:104920004C1BE9EEF0E010828881886088831F705C
:104930001083FF91EF91DF91CF91BF91AF919F9144
:104940008F917F916F915F914F913F912F911F9127
:104950000F900FBE0F901F901895EF92FF921F932C
:10496000CF93DF93182FEB011092BC0084EA809361
:10497000BC000E94AB127C018091BC0087FF26C066
:104980008091B900887F883029F08091B900887FB4
:10499000803189F51093BB0084E88093BC000E94AD
:1049A000AB127C018091BC0087FF1EC02091B90032
:1049B000287F80E090E0283189F081E090E0203489
:1049C00009F480E091958195910908C0C7010E9482
:1049D000B712C817D90780F68EEF9FEFDF91CF91FE
:1049E0001F91FF90EF900895C7010E94B712C8175A
:1049F000D907C0F6F1CF8FEF9FEFF0CF1092B9003B
:104A00008CE08093B80008950F931F93CF93DF93AA
:104A1000EB018093BB0084E88093BC000E94AB1242
:104A20008C018091BC0087FF10C02091B900287FC5
:104A300081E090E0283209F480E091958195910918
:104A4000DF91CF911F910F910895CF3FDC0749F37C
:104A5000C8010E94B712C817D90718F78EEF9FEF49
:104A6000EFCFA0E0B0E0E6E3F5E227C3982E862E74
:104A7000772E6A0179010E94AB125C0184E1E8168D
:104A8000F10410F18FEFE816FE0409F1C70164E1AB
:104A900070E0FAD2162F072F612F702F892D5DDF5E
:104AA000EC01892BB1F4082D172DC00ED11E0C1569
:104AB0001D0511F02097C1F084E98093BC00CE0160
:104AC000CDB7DEB7EDE015C311E000E0E5CF15E0AE
:104AD000FCCF8FEFE816FE04F9F2C5010E94B71271
:104AE000E816F906C8F6DFCFB701F80181918F010A
:104AF0008BDFEC01DCCFA0E0B0E0E0E8F5E2DDC266
:104B0000982E862E772E6A0189010E94AB125C01D5
:104B10000431110500F10F3F100701F1C80164E1F4
:104B200070E0B2D2EB01BE01892D17DF7C01892B29
:104B3000B9F4C82DD72DCC0EDD1ECC15DD0519F02E
:104B4000E114F104B9F084E98093BC00C701CDB74A
:104B5000DEB7EDE0CEC2C1E0D0E0E5CFC5E0FCCFEE
:104B60000F3F100701F3C5010E94B712081719077C
:104B7000D0F6DFCFFE018491B80146DF7C0121969B
:104B8000DCCFA0E0B0E0E6ECF5E296C2982E862EEF
:104B9000742E652E6901E8010E94AB125C0104319C
:104BA000110508F10F3F100711F1C80164E170E031
:104BB0006BD2F62EE72E6F2D7E2D892DCEDE8C0149
:104BC000892BC1F0CF3FDC07B1F3C5010E94B712BA
:104BD000C817D90780F784E98093BC00C801CDB716
:104BE000DEB7EEE085C2FF24F394E12CE4CF85E04C
:104BF000F82EFBCFBE01882D07DF8C01E72CF62CA9
:104C0000CE0CDF1CEC14FD0431F30115110519F76E
:104C1000BE01F70181917F01F7DE8C01F3CF03D054
:104C2000E39528C0D4C03FD0E8F3E894E0E0BB2788
:104C30009F57F0F02AED3FE049EC06C0EE0FBB0FA6
:104C4000661F771F881F28F0B23A62077307840730
:104C500028F0B25A620B730B840BE3959A9572F7A6
:104C6000803830F49A95BB0F661F771F881FD2F7E4
:104C70009048A1C0EF93E0FF06C0A2EA2AED3FE012
:104C800049EC5FEB3DD0C5D00F90039401FC9058E8
:104C9000E4ECF7E59FC057FD9058440F551F59F0BD
:104CA0005F3F71F04795880F97FB991F61F09F3F19
:104CB00079F087950895121613061406551FF2CF42
:104CC0004695F1DF08C0161617061806991FF1CF92
:104CD000869571056105089408959F93A4DF0F9050
:104CE00007FCEE5FC7CF87D030F08CD020F031F4D6
:104CF0009F3F11F41EF46BC00EF4E095E7FB53C028
:104D0000E92FC9DF80F3BA17620773078407950795
:104D100018F071F49EF58EC00EF4E0950B2EBA2FAC
:104D2000A02D0B01B90190010C01CA01A0011124B1
:104D3000FF27591B99F0593F50F4503E68F11A165D
:104D4000F040A22F232F342F4427585FF3CF4695EE
:104D500037952795A795F0405395C9F77EF41F1610
:104D6000BA0B620B730B840BBAF09150A1F0FF0FDA
:104D7000BB1F661F771F881FC2F70EC0BA0F621FC6
:104D8000731F841F48F4879577956795B795F795B6
:104D90009E3F08F0B3CF9395880F08F09927EE0F48
:104DA00097958795089597F99F6780E870E060E090
:104DB00008959F3F31F0915020F48795779567953E
:104DC000B795880F911D9695879597F908959FEF50
:104DD00080EC08959F938F937F936F93FF93EF934E
:104DE0009B01AC012ED0EF91FF918ED02F913F917E
:104DF0004F915F9126C000240A94161617061806D4
:104E00000906089500240A941216130614060506CE
:104E10000895092E0394000C11F4882352F0BB0F5F
:104E200040F4BF2B11F460FF04C06F5F7F4F8F4FC2
:104E30009F4F0895E894BB2766277727CB0197F902
:104E400008950BD0E6CFD7DF28F0DCDF18F09523EC
:104E500009F0A9CFBCCF1124EECF1DDFA0F3959FA1
:104E6000D1F3950F50E0551F629FF001729FBB2751
:104E7000F00DB11D639FAA27F00DB11DAA1F649FFD
:104E80006627B00DA11D661F829F2227B00DA11DB0
:104E9000621F739FB00DA11D621F839FA00D611D36
:104EA000221F749F3327A00D611D231F849F600D57
:104EB000211D822F762F6A2F11249F5750408AF090
:104EC000E1F088234AF0EE0FFF1FBB1F661F771F1C
:104ED000881F91505040A9F79E3F510570F063CF55
:104EE000AACF5F3FECF3983EDCF386957795679504
:104EF000B795F795E7959F5FC1F7FE2B880F911D3A
:104F00009695879597F90895DF93CF931F930F9305
:104F1000FF92EF92DF927B018C01689405C0DA2E3C
:104F2000EF019BDFFE01E894A59125913591459114
:104F30005591AEF3EF01E4DEFE019701A801DA948A
:104F400079F7DF90EF90FF900F911F91CF91DF9154
:104F500008955058BB27AA27D3DE5BCF04D06894AE
:104F6000B11169CF08959FDE88F09F5790F0B92F57
:104F70009927B751A0F0D1F0660F771F881F991FAE
:104F80001AF0BA95C9F712C0B13081F053DFB1E021
:104F9000089550CF672F782F8827B85F39F0B93F31
:104FA000CCF3869577956795B395D9F73EF49095B0
:104FB0008095709561957F4F8F4F9F4F0895E8942E
:104FC00009C097FB3EF490958095709561957F4F51
:104FD0008F4F9F4F9923A9F0F92F96E9BB279395FF
:104FE000F695879577956795B795F111F8CFFAF40F
:104FF000BB0F11F460FF1BC06F5F7F4F8F4F9F4F40
:1050000016C0882311F096E911C0772321F09EE89D
:10501000872F762F05C0662371F096E8862F70E003
:1050200060E02AF09A95660F771F881FDAF7880FDD
:105030009695879597F9089503D008F48FEF089512
:10504000990F0008550FAA0BE0E8FEEF1616170699
:10505000E807F907C0F012161306E407F50798F001
:10506000621B730B840B950B39F40A2661F0232B1A
:10507000242B252B21F408950A2609F4A140A69596
:105080008FEF811D811D0895AA1BBB1B51E107C035
:10509000AA1FBB1FA617B70710F0A61BB70B881FC8
:1050A000991F5A95A9F780959095BC01CD01089557
:1050B0002F923F924F925F926F927F928F929F9228
:1050C000AF92BF92CF92DF92EF92FF920F931F9316
:1050D000CF93DF93CDB7DEB7CA1BDB0B0FB6F894C7
:1050E000DEBF0FBECDBF09942A88398848885F8407
:1050F0006E847D848C849B84AA84B984C884DF8078
:10510000EE80FD800C811B81AA81B981CE0FD11D5B
:105110000FB6F894DEBF0FBECDBFED0108959927FD
:1051200078E0880F991F961708F0961B881F7A95CC
:10513000C9F78095089597FB072E16F4009406D0C2
:1051400077FD08D0A1DF07FC05D03EF4909581954E
:105150009F4F0895709561957F4F0895EE0FFF1F43
:105160000590F491E02D09946927962769277827FF
:1051700087277827089590958095709561957F4F42
:105180008F4F9F4F0895FB01DC0102C005900D92E7
:1051900041505040D8F70895FB01DC0104C08D91C7
:1051A0000190801921F441505040C8F7881B990B99
:1051B0000895AEE0B0E0EEEDF8E28ACF86E08C83B1
:1051C0002B893C8929833A838D899E89813030E8F7
:1051D000930710F080E090E801978D839E83AE01E5
:1051E000475E5F4F6F89788DCE01019612D04D8159
:1051F0005E8157FD0BC0EF81F8854E175F070CF4F9
:10520000FA012B893C89E20FF31F10822E96E2E00F
:105210007BCFACE0B0E0EEE0F9E24DCF5C016B019A
:105220007A01FC0116821782838181FFC4C12AE0C2
:10523000522EF5012381F60123FD859123FF8191F3
:105240006F01811509F423C1853239F423FD95914D
:1052500023FF91916F01953221F4B50190E0C4D103
:10526000E8CF30E0712C00E010E0103210F59B32F6
:10527000C9F050F49032B9F09332C9F09E3261F522
:1052800016FD05C1106405C09D3279F0903399F484
:105290001160F60123FD959123FF91916F0191110A
:1052A000E4CF23C012601460F4CF1860F2CF106115
:1052B000F0CF17FD1AC080ED890F8A30F8F616FF7F
:1052C00005C0759C800D1124782EE3CF059D800DBF
:1052D0001124082F1062DDCF9C3611F41068D9CF4D
:1052E0009C3409F43EC09836A1F2892F8F7D8554F5
:1052F0008330C8F1933609F45CC0933709F467C072
:10530000933509F472C0943619F0993609F09BC0B0
:10531000F70117FF91C061917191819191917F0186
:105320001F7697FF02C027DF10682AE030E04E01A9
:105330004FEF841A940AA40196D1682E681816FFBC
:10534000CBC0812F8E7F671408F0C5C014FF13C136
:1053500012FD07C11E7E972C812F867809F4C7C0E5
:1053600005C131E096CF311501F1F8E0EF0EF11CE7
:105370008FE3898391E0692E712C4E018FEF881A9B
:10538000980A1F7713FD04C06016710408F43CC02E
:105390006114710409F03EC0011509F44ACFB5014A
:1053A00080E290E021D10150F7CF44E0E40EF11CFF
:1053B000DFCFF70180818983F2E0EF0EF11C81E0FD
:1053C000682E712C4E014FEF841A940ADACFF70140
:1053D000819091907F01672D70E016FD02C06FEF04
:1053E0007FEFC401F6D03C01CCCFF70181909190C2
:1053F0007F01672D70E016FD02C06FEF7FEFC401E3
:10540000DDD03C011068BECFB50180E290E0ECD069
:105410000150BACFF40117FD859117FF81914F011B
:10542000B50190E0E1D081E0011101C080E0081BEE
:10543000F1E06F1A7108ACCF61917191872F880FDD
:10544000880B982F6CCF9537C1F41F7E1C872AE0FC
:1054500030E0FC85F7FF39C0F701619171918191CE
:1054600091917F014E014FEF841A940AA401FBD061
:10547000682E68181C851F7762CF812F897F8C87E3
:10548000903791F050F49835B1F09F36D9F0F5018E
:10549000868197812C96EFE02ACE9837C1F714FDCC
:1054A00006C020E130E0D5CF9C8590619C87EC85DB
:1054B000E460EC87F6CF14FF02C016601C8720E181
:1054C00032E0C7CF28E030E0C4CFF701619171919D
:1054D00080E090E0C6CF182F962C14FF3DCFFE0140
:1054E000E60DF11D8081803309F03EC0197E13FD69
:1054F0000EC010FF4BC0762C901618F4700E791861
:10550000902E802F8919091508F480E0980E9016C6
:1055100008F03EC0091914FF3DC0B50180E390E0DA
:1055200063D012FF08C088E590E011FD02C088E753
:1055300090E0B50159D06714C0F14E018FEF881A81
:10554000980A6A94FE013296E60DF11D3F01F301BF
:1055500082913F01B50190E047D068147904B9F712
:105560001BCF972C182FBBCF12FD02C09394BFCF37
:1055700093949394BCCF972C182FEECEB50180E274
:1055800090E032D083948016C8F3BBCF892CFBCF38
:1055900000E0C1CF812F867871F280E211FD8BE2AD
:1055A00017FD8DE2B50190E0C5CFB50180E390E035
:1055B0001BD07A94C0CF8FEF9FEF6CCFFC0105908A
:1055C000615070400110D8F7809590958E0F9F1F05
:1055D0000895FC016150704001900110D8F780954A
:1055E00090958E0F9F1F0895A3E0B0E0E9EFFAE2D7
:1055F0006ECD182F99836A837B83DB0113968C9180
:1056000081FD08C01FEFBFEFB983812F99812396D9
:10561000E3E079CD82FF1BC0EA81FB8126813781DF
:10562000848195812817390754F40190F081E02D89
:10563000CF010196AA81BB818D939D931083EA814E
:10564000FB8186819781019686839783DECFAA812D
:10565000BB811896ED91FD911A97BD01812F099597
:10566000892B69F3CFCFFA01AA27283051F12031D5
:1056700081F1E8946F936E7F6E5F7F4F8F4F9F4FE6
:10568000AF4FB1E03ED0B4E03CD0670F781F891F28
:105690009A1FA11D680F791F8A1F911DA11D6A0FF6
:1056A000711D811D911DA11D20D009F468943F91A9
:1056B0002AE0269F11243019305D3193DEF6CF01A8
:1056C0000895462F4770405D4193B3E00FD0C9F76E
:1056D000F6CF462F4F70405D4A3318F0495D31FDDB
:1056E0004052419302D0A9F7EACFB4E0A69597952E
:1056F000879577956795BA95C9F700976105710504
:1057000008959B01AC010A2E06945795479537954D
:105710002795BA95C9F7620F731F841F951FA01DA7
:105720000895F999FECF92BD81BDF89A992780B569
:105730000895A6E1B0E044E050E034C0A8E1B0E054
:1057400042E050E02FC0DC01A40FB51F4150504093
:1057500040F0CB01840F951F2E9105D04150504051
:10576000D8F70895262FF999FECF92BD81BDF89AFA
:10577000019700B4021639F01FBA20BD0FB6F89495
:10578000FA9AF99A0FBE08950396272FECDFEADF05
:10579000252FE9DF242FE7CF0196272FE4DFE2CF83
:1057A000DC01CB01FC01F999FECF06C0F2BDE1BDE1
:1057B000F89A319600B40D9241505040B8F70895D0
:1057C000F894FFCF05A84CCDB2D44EB93836A90213
:1057D0000C50B9918688083CA6AAAA2ABE000000EF
:1057E000803F2F13351338133E13531353135313A2
:1057F00053135313531353135313411346134A13A1
:105800005013711377137B130017001736173617D1
:10581000C217DD175D175D17E1175B186C186C1860
:105820002E1C541C5A1C541C5A1CA91CCC1C5A1C3F
:10583000C71DD41D1B221F225722672272227D22E0
:1058400027222722272227222722802283228722FB
:0E585000B022DD22E022E22210233B2345237A
:10585E000021007F22000300000100AB07370ACBB6
:10586E00074A0A4F0A2F0A2535640044227B490154
:10587E002701AC009F01B801D801000810181810BC
:10588E000800010002000300040005000600C4FF2A
:10589E00D3FFE2FFF1FF00000F001E002D003C00C1
:1058AE0000FF0100010000FFFF0000010001FF00EA
:1058BE00363332E200E900EA00B500B600B700CD9B
:1058CE00008301CC008A019201940121022302245B
:1058DE00022502260227022A02B300B4006F0070CE
:1058EE00009F01CB019F02A002E200E900EA00B591
:1058FE0000B600B700CD008301CC008A019201945E
:10590E00012102230224022502260227022A02B3C3
:10591E0000B4006F0070009F01CB019F02A002FA3D
:0A592E0000F401EE02E803E20400B9
:00000001FF
